:100000000C9489000C94B3000C94B3000C94B300CE
:100010000C94B3000C94B3000C94B3000C94B30094
:100020000C94B3000C94B3000C940E040C94B30025
:100030000C94B3000C94B3000C94B3000C94B30074
:100040000C94B3000C94B3000C94B3000C94B30064
:100050000C94B3000C94B3000C94B3000C94B30054
:100060000C94B3000C9449080C94FE070C94F4070C
:100070000C94B3000C94B3000C94B3000C94B30034
:100080000C94B3000C94B3000C94B3000C94B30024
:100090000C94B3000C94B300040309041C03300057
:1000A00030003000300030003000300030003000D0
:1000B00030003000300030001A03470045002D00AA
:1000C00046006C006100730068002000550053007A
:1000D00042000E034B00470034004C004E00450028
:1000E0000902200001010080320904000002FF0023
:1000F00000000705810240000007050202400000E1
:100100001201000200000040EB03FF2F001001026B
:10011000030111241FBECFEFD0E2DEBFCDBF80E0D0
:1001200090E020E80FB6F89420936100809361007E
:100130000FBE81E011E0A0E0B1E0E4E3F1E100E016
:100140000BBF02C007900D92A230B107D9F722E091
:10015000A2E0B1E001C01D92AA37B207E1F70E9408
:10016000B5000C9498080C9400000E94130580E0E0
:1001700090E020E80FB6F89420936100809361002E
:100180000FBE0E94CF0080E090E008950E94FF0320
:100190000C94E0050E940C040E94CE07FBCF0E9445
:1001A000C6000E94CA007894E8EDF0E080818F7666
:1001B000808380818069808380818F7B8083789435
:1001C00008958EE089BD09B400FEFDCFF8948091BA
:1001D000D8008F7D8093D8000E94FC048091E000BD
:1001E0008E7F8093E00078948091E200816080931C
:1001F000E2008091E20088608093E200089580919F
:10020000D90080FF14C080910201811110C081E0EB
:1002100080930201109203018091040190910501E5
:10022000826090930501809304010E94E100809117
:10023000D90080FD1BC0809102018130B9F4109279
:100240000201109271018091040190910501846076
:1002500090930501809304018091E0008160809378
:10026000E0008091D80080628093D80080910401E2
:100270009091050190FF10C08091040190910501BB
:100280009E7F909305018093040181E08093EA00B2
:100290001092EA00109271011092E9008091E8003A
:1002A00083FD0C94B901089580E00895CF93DF9306
:1002B000C9EED0E081E0888364E381E80E94E6042F
:1002C00082E0888364E380E8DF91CF910C94E604B8
:1002D00080E00895892B19F581E08093E9008091F1
:1002E000EB0080618093EB0092E09093EA00109223
:1002F000EA008091EB0088608093EB009093E90026
:100300008091EB0080618093EB0084E08093EA00B1
:100310001092EA008091EB0088608093EB000895D2
:10032000833029F5613061F028F0623079F0633074
:10033000F1F412C084E08093720188E990E011C06A
:100340008EE08093720182ED90E00BC08AE1809391
:10035000720188EB90E005C08CE1809372018CE91A
:1003600090E0909374018093730181E0089580E0A0
:1003700008950F931F93CF93DF9300D0CDB7DEB7CF
:100380008091E8008B7F8093E8001091F10000914C
:10039000F1000630E1F060F4013009F426C108F400
:1003A00091C1033009F453C1053009F00EC2DEC01B
:1003B000093009F4FFC020F4083009F006C2ACC0CF
:1003C0000A3009F4B1C10B3009F0FFC1D6C11038B1
:1003D00009F0FBC16091F1008091F100813019F0CA
:1003E000823089F406C082E18093720180E091E05E
:1003F00005C080E28093720180EE90E090937401DA
:100400008093730105C00E949001882309F4DDC127
:100410008091F1008091F1008091F10089838091B9
:10042000F1008A838091E800877F8093E8008981CA
:100430009A8140917201242F30E02817390720F467
:100440004F7331E021F002C08093720130E080915F
:10045000E8008F7E33C08091E80084FD1CC080914D
:10046000D90080FF18C08091E80080FFF4CF13C04E
:100470002150B1F0E0917301F0917401CF01019628
:100480009093740180937301E491E093F1004150E3
:100490004093720101C021E4409172014111E8CF03
:1004A0008091E80084FF03C0313049F512C080918B
:1004B000D90080FFF9CF8091E8008E7F8093E8001B
:1004C00080917201882381F38091E80084FFCBCF73
:1004D000EBCF8091E80084FD12C08091E80080FDA0
:1004E00004C08091D90080FDF8CF8091E8008E7F14
:1004F0008093E80004C08091D90080FF04C08091FF
:10050000E80084FFF8CF8091E8008F7E8093E800B8
:100510008091E8008B7F27C0103809F056C1809188
:10052000E800877F8093E800809171018093F1005B
:100530008091E8008E7F8093E8008091E8008F77BB
:100540008093E80004C08091D90080FF04C08091AE
:10055000E80082FFF8CF8091E8008B7F8093E8006D
:100560008091E8008F778093E80042C111112DC17E
:100570008091F1009091E3008F779078892B8093A0
:10058000E3008091E800877F8093E8008091E80095
:100590008E7F8093E80004C08091D90080FF04C062
:1005A0008091E80080FFF8CF8091E300806880931D
:1005B000E3001EC1111109C18091F100823008F0E1
:1005C00004C19091E800977F9093E80080937101B7
:1005D0009091E8009E7F9093E8000F900F90DF913C
:1005E000CF911F910F910C9456011123B1F112304C
:1005F00009F0EBC08091F1009091F1008111E5C00C
:10060000E091F100EF77E093E9008091EB0080FF4B
:1006100041C0EE23A9F08091EB0080618093EB0054
:1006200081E090E00E2E01C0880F0A94EAF78093D3
:10063000EA001092EA008091EB0088608093EB0062
:100640001092E900F0E0E659FE4F108232C011230B
:1006500021F0123009F0B9C003C08091F100B5C09B
:100660008091F1009091F1008111AFC0E091F10013
:10067000EF7751F48091EB0080628093EB008091E2
:10068000E800877F8093E800E093E9008091EB0029
:1006900080FD03C01092E90098C08091EB00806259
:1006A0008093EB001092E900F0E0E659FE4F81E004
:1006B00080838091E800877F8093E8008091E80044
:1006C0008E7F51CF8091F1008091F100E091F10097
:1006D000113829F0123859F0103809F076C080919D
:1006E000E800877F8093E8001092F1000CC08091B1
:1006F000E800877F8093E800EF77F0E0E659FE4F4F
:1007000080818093F1001092F1008091E8008E7F4B
:100710008093E80004C08091D90080FF1CCF8091B5
:10072000E80082FFF8CF17CF113809F04EC0809152
:10073000F1008091F1009091F10099839091F10086
:100740009A83811142C08091E800877F8093E800FE
:1007500089819A810E9468018093F1008091E8006C
:100760008E7F8093E80004C08091D90080FFF3CE93
:100770008091E80082FFF8CFEECE113031F5609124
:10078000F1008091F1009091F10099839091F10036
:100790009A8381111AC08091E800877F8093E800D6
:1007A00089819A810E946A011092E9008091E80093
:1007B0008E7F8093E80004C08091D90080FF18C02C
:1007C0008091E80080FFF8CF13C0602F812F0E9436
:1007D000540181110DC08091EB0080628093EB0089
:1007E0008091E800877F8093E80081E080936A0130
:1007F0000F900F90DF91CF911F910F910895E7ED2A
:10080000F0E080818160808380818F7B8083808124
:10081000806880830C94D3000C94FF001F920F9289
:100820000FB60F9211240BB60F922F933F934F9355
:100830005F936F937F938F939F93AF93BF93EF9348
:10084000FF938091E10082FF09C08091E20082FF66
:1008500005C08BEF8093E1000E9441058091E1008B
:1008600080FF40C08091E20080FF3CC08091030186
:100870008130D9F4809171018823B9F08091E20030
:100880008E7F8093E2008FEE8093E1008091E20002
:1008900080618093E20089B58D7F89BD19BC80910C
:1008A000D80080628093D8001DC08FEE8093E10055
:1008B00080910401909105018062909305018093DD
:1008C00004018EEF8093E1008091E20080618093CB
:1008D000E2008091D80080628093D80089B58D7F36
:1008E00089BD19BC8091E10084FF29C08091E2009C
:1008F00084FF25C009B400FE1CC08091D8008F7D04
:100900008093D8008FEE8093E1008091E2008F7E8B
:100910008093E2008091040190910501806490939E
:100920000501809304018091E20081608093E200E0
:1009300006C08EE089BD09B400FEFDCFDECF8091F8
:10094000E10085FF1AC08091E20085FF16C080910A
:10095000E2008F7E8093E2008FED8093E100809132
:10096000E2008F7D8093E200809104019091050167
:10097000806890930501809304018091E10083FFDA
:1009800012C08091E20083FF0EC087EF8093E100E8
:100990000E94FC0480910401909105019160909364
:1009A000050180930401FF91EF91BF91AF919F9159
:1009B0008F917F916F915F914F913F912F910F9008
:1009C0000BBE0F900FBE0F901F901895EBEEF0E04E
:1009D0009081916090838093EC00EDEEF0E0808157
:1009E0008270682B60838081826080838091EE00BA
:1009F000881F8827881F08958091D8008F7B809357
:100A0000D8008091D90081FF0CC01092E90080913C
:100A1000EB0080FD06C01092E90060E382E00C94D8
:100A2000E60480E008958FB7F89497EF94BF98E1BB
:100A30000FB6F89490936000109260000FBE87FF8D
:100A400001C078940895682F80E020E030E0E1E074
:100A5000F0E070E0AF01022E02C0440F551F0A946F
:100A6000E2F746235723022E02C0559547950A9474
:100A7000E2F7880F842B2F5F3F4F2830310551F765
:100A80000895809177028F5F809377020895CF93C6
:100A900081E08093E900C1E009C01092E9008091F3
:100AA000E80083FD0E94B901C093E9008091EB004A
:100AB00085FDF3CF82E08093E900C2E009C0109287
:100AC000E9008091E80083FD0E94B901C093E9002C
:100AD0008091EB0085FDF3CF81E08093E90004C0B5
:100AE0008091EB0080FF21C08091E80085FFF8CF66
:100AF000809178028093F100809179028093F100D7
:100B0000809176028093F100809175028093F100CC
:100B1000809106018093F100809107018093F1009C
:100B20008091E8008F778093E800CF91089520E0CE
:100B300030E040ED57E005C0FA013197F1F72F5F43
:100B40003F4F28173907C1F7089511B812B88FEF32
:100B500081B914B880EC85B9000087E084B9000041
:100B60008CB580618CBD8CB58F7D8CBD8CB5837F41
:100B70008CBD8CB58CBD8CB58C7F8CBD8CB58360E9
:100B80008CBD8DB58E7F8DBD28988CB580648CBD55
:100B900085E88EBD0DB407FEFDCF8AE090E00E948F
:100BA000970517B818B880EF87B91AB81BB889E04D
:100BB0008AB91DB81EB881EC8DB900001EB8089521
:100BC0000E94A505E2EEF0E08081846080830895B4
:100BD000289A8EBD0DB407FEFDCF89E190E00E94FA
:100BE0009705289881E090E008950F931F93CF9385
:100BF000DF938C01769A89E190E00E94970585E861
:100C00000E94E80584E80E94E805E80100E010E0A1
:100C1000289AC80123E0880F991F2A95E1F7887761
:100C2000992783689F6F8EBD0DB407FEFDCF888125
:100C30000E9423058EBD0DB407FEFDCF89810E9461
:100C400023058EBD0DB407FEFDCF229628980F5FB9
:100C50001F4F00311105E1F681E80E94E80580E8A8
:100C60000E94E80589E190E00E949705769881E06E
:100C700090E0DF91CF911F910F910895DF92EF9255
:100C8000FF920F931F93CF93DF938C01769A89E1A4
:100C900090E00E94970585E80E94E8058EB5E8017E
:100CA00000E010E0289AC80133E0880F991F3A95B8
:100CB000E1F78877992786689F6F8EBD0DB407FE90
:100CC000FDCF1EBC0DB407FEFDCF8EB50E942305DF
:100CD000D82E1EBC0DB407FEFDCF8EB50E94230595
:100CE000F82EE12CC7018D298993999328980F5FDD
:100CF0001F4F00311105B1F689E190E00E94970580
:100D0000769881E090E0DF91CF911F910F91FF9055
:100D1000EF90DF9008950F931F93CF93DF938C0193
:100D200017B880EF88B9769A0000CFEFC7B98AE08C
:100D300090E00E94970512B8C1B98AE090E00E9445
:100D40009705479881E090E00E949705E80100E050
:100D500010E002B981E090E00E94970589918F70C0
:100D6000806388B981E090E00E949705469A000070
:100D70000F5F1F4F011581E0180759F744988AEF5C
:100D800090E00E94970588B1806F88B98AE090E072
:100D90000E94970512B8769811B817B881E090E0D4
:100DA000DF91CF911F910F9108950F931F93CF93D0
:100DB000DF938C0117B820EF28B9769A000027B985
:100DC0008AE090E00E94970512B88FEF81B98AE01F
:100DD00090E00E94970545988AE090E00E94970570
:100DE000459A8AE090E00E94970547988AE090E053
:100DF0000E949705E80100E010E002B981E090E070
:100E00000E94970586B18F7089930F5F1F4F011560
:100E100081E0180791F780EF88B98AE090E00E949E
:100E2000970512B8769811B817B881E090E0DF9175
:100E3000CF911F910F9108951092790280917802BD
:100E4000843031F138F4823079F098F4813009F04F
:100E50005AC007C08630D9F150F18F3F09F053C016
:100E600049C08091000130C08091750280930001DB
:100E700048C0709880910001823029F485E791E0A4
:100E80000E94F5053EC085E791E00E948B0639C0BF
:100E9000709880910001823029F485E791E00E94EA
:100EA0003E062FC085E791E00E94D5062AC08091BA
:100EB0000601909107018F3F910511F008F00FC0D6
:100EC000FC01EB58FE4F8081809375021AC080911F
:100ED0000601909107018F3F910529F020F080E8ED
:100EE000809379020EC0FC01EB58FE4F20917502F1
:100EF000208307C0E5E7F1E0119282E0E537F807CB
:100F0000D9F781E0089580E0089582E08093E900B8
:100F10008091F100809378028091F10080937902B2
:100F20008091F100809376029091F1009093750288
:100F30009091F100909306019091F1009093070138
:100F4000882321F081E08093760202C0109276021D
:100F50008091E8008B7F8093E8008091E8008F7794
:100F60008093E80080917602813011F48093E9004B
:100F70000E941C07813089F08091EB008062809391
:100F8000EB0080917602813011F4E1E001C0E2E0F3
:100F9000F0E0E659FE4F81E08083089580910801DA
:100FA00090910901019680362AEE920728F49093D9
:100FB00009018093080108C01092090110920801EC
:100FC0008EB191E089278EB980917101882359F003
:100FD00082E08093E9008091E80082FF04C00E94D3
:100FE00085070C94470508951F920F920FB60F9234
:100FF00011240F900FBE0F901F9018951F920F9203
:101000000FB60F9211240BB60F922F933F934F936D
:101010008F939F93EF93FF93809160019091610173
:1010200020916201309163018217930751F48091FE
:10103000C9008F7D8093C9001092650110926401F0
:101040001AC0FC01E05BFE4F4081019620916401D3
:10105000309165012150310930936501209364017D
:101060008031910510F080E090E0909361018093D1
:1010700060014093CE00FF91EF919F918F914F912E
:101080003F912F910F900BBE0F900FBE0F901F90AE
:1010900018951F920F920FB60F9211240BB60F9254
:1010A0002F933F938F939F93EF93FF939091C8005B
:1010B0002091CE00892F8C7131F080916801892BAD
:1010C0008093680128C080914C0190914D01FC01F2
:1010D000E65FFE4F208301968034910510F080E09A
:1010E00090E020914A0130914B018217930731F42F
:1010F000809167018260809367010DC090934D01DC
:1011000080934C0180914E0190914F0101969093F4
:101110004F0180934E01FF91EF919F918F913F91ED
:101120002F910F900BBE0F900FBE0F901F90189530
:04113000F894FFCF61
:021134000100B8
:00000001FF
